{
  "_format": "hh-sol-artifact-1",
  "contractName": "Marketplace",
  "sourceName": "src/backend/contracts/Marketplace.sol",
  "abi": [
    {
      "inputs": [
        {
          "internalType": "address",
          "name": "_feePercent",
          "type": "address"
        },
        {
          "internalType": "contract IERC20",
          "name": "_token",
          "type": "address"
        }
      ],
      "stateMutability": "nonpayable",
      "type": "constructor"
    },
    {
      "inputs": [],
      "name": "BasicNft__RoyalityFeesPercentageLimitExceed",
      "type": "error"
    },
    {
      "inputs": [],
      "name": "PleaseMakeAllowanceFirst",
      "type": "error"
    },
    {
      "anonymous": false,
      "inputs": [
        {
          "indexed": false,
          "internalType": "uint256",
          "name": "itemId",
          "type": "uint256"
        },
        {
          "indexed": true,
          "internalType": "address",
          "name": "nft",
          "type": "address"
        },
        {
          "indexed": false,
          "internalType": "uint256",
          "name": "tokenId",
          "type": "uint256"
        },
        {
          "indexed": false,
          "internalType": "uint256",
          "name": "price",
          "type": "uint256"
        },
        {
          "indexed": true,
          "internalType": "address",
          "name": "seller",
          "type": "address"
        },
        {
          "indexed": true,
          "internalType": "address",
          "name": "buyer",
          "type": "address"
        }
      ],
      "name": "Bought",
      "type": "event"
    },
    {
      "anonymous": false,
      "inputs": [
        {
          "indexed": false,
          "internalType": "uint256",
          "name": "itemId",
          "type": "uint256"
        },
        {
          "indexed": true,
          "internalType": "address",
          "name": "nft",
          "type": "address"
        },
        {
          "indexed": false,
          "internalType": "uint256",
          "name": "tokenId",
          "type": "uint256"
        },
        {
          "indexed": false,
          "internalType": "uint256",
          "name": "price",
          "type": "uint256"
        },
        {
          "indexed": true,
          "internalType": "address",
          "name": "seller",
          "type": "address"
        }
      ],
      "name": "Offered",
      "type": "event"
    },
    {
      "anonymous": false,
      "inputs": [
        {
          "indexed": true,
          "internalType": "address",
          "name": "previousOwner",
          "type": "address"
        },
        {
          "indexed": true,
          "internalType": "address",
          "name": "newOwner",
          "type": "address"
        }
      ],
      "name": "OwnershipTransferred",
      "type": "event"
    },
    {
      "stateMutability": "payable",
      "type": "fallback"
    },
    {
      "inputs": [
        {
          "internalType": "uint256",
          "name": "itemId",
          "type": "uint256"
        }
      ],
      "name": "_checkAuctionStatus",
      "outputs": [
        {
          "internalType": "bool",
          "name": "",
          "type": "bool"
        }
      ],
      "stateMutability": "view",
      "type": "function"
    },
    {
      "inputs": [
        {
          "internalType": "uint256",
          "name": "itemId",
          "type": "uint256"
        }
      ],
      "name": "_updateStatus",
      "outputs": [],
      "stateMutability": "nonpayable",
      "type": "function"
    },
    {
      "inputs": [
        {
          "internalType": "uint256",
          "name": "_itemId",
          "type": "uint256"
        }
      ],
      "name": "acceptOffer",
      "outputs": [],
      "stateMutability": "nonpayable",
      "type": "function"
    },
    {
      "inputs": [
        {
          "internalType": "uint256",
          "name": "itemId",
          "type": "uint256"
        },
        {
          "internalType": "uint256",
          "name": "_amount",
          "type": "uint256"
        }
      ],
      "name": "bid",
      "outputs": [],
      "stateMutability": "payable",
      "type": "function"
    },
    {
      "inputs": [
        {
          "internalType": "uint256",
          "name": "itemId",
          "type": "uint256"
        }
      ],
      "name": "cancelListing",
      "outputs": [],
      "stateMutability": "nonpayable",
      "type": "function"
    },
    {
      "inputs": [
        {
          "internalType": "uint256",
          "name": "itemId",
          "type": "uint256"
        },
        {
          "internalType": "address",
          "name": "_msgSender",
          "type": "address"
        }
      ],
      "name": "cancellAuction",
      "outputs": [],
      "stateMutability": "payable",
      "type": "function"
    },
    {
      "inputs": [
        {
          "internalType": "uint256",
          "name": "itemId",
          "type": "uint256"
        },
        {
          "internalType": "address",
          "name": "_msgSender",
          "type": "address"
        }
      ],
      "name": "concludeAuction",
      "outputs": [],
      "stateMutability": "payable",
      "type": "function"
    },
    {
      "inputs": [
        {
          "internalType": "contract IERC721",
          "name": "_nft",
          "type": "address"
        },
        {
          "internalType": "uint256",
          "name": "_tokenId",
          "type": "uint256"
        },
        {
          "internalType": "uint256",
          "name": "_basePrice",
          "type": "uint256"
        },
        {
          "internalType": "uint256",
          "name": "_royality",
          "type": "uint256"
        },
        {
          "internalType": "uint256",
          "name": "endTime",
          "type": "uint256"
        }
      ],
      "name": "createAuction",
      "outputs": [],
      "stateMutability": "nonpayable",
      "type": "function"
    },
    {
      "inputs": [],
      "name": "feeAccount",
      "outputs": [
        {
          "internalType": "address payable",
          "name": "",
          "type": "address"
        }
      ],
      "stateMutability": "view",
      "type": "function"
    },
    {
      "inputs": [
        {
          "internalType": "uint256",
          "name": "itemId",
          "type": "uint256"
        }
      ],
      "name": "getHighestBid",
      "outputs": [
        {
          "internalType": "uint256",
          "name": "",
          "type": "uint256"
        }
      ],
      "stateMutability": "view",
      "type": "function"
    },
    {
      "inputs": [
        {
          "internalType": "uint256",
          "name": "itemId",
          "type": "uint256"
        }
      ],
      "name": "getHighestBidder",
      "outputs": [
        {
          "internalType": "address",
          "name": "",
          "type": "address"
        }
      ],
      "stateMutability": "view",
      "type": "function"
    },
    {
      "inputs": [
        {
          "internalType": "uint256",
          "name": "itemId",
          "type": "uint256"
        }
      ],
      "name": "getLastTime",
      "outputs": [
        {
          "internalType": "uint256",
          "name": "",
          "type": "uint256"
        }
      ],
      "stateMutability": "view",
      "type": "function"
    },
    {
      "inputs": [
        {
          "internalType": "uint256",
          "name": "itemId",
          "type": "uint256"
        }
      ],
      "name": "getOffer",
      "outputs": [
        {
          "internalType": "uint256",
          "name": "",
          "type": "uint256"
        },
        {
          "internalType": "address",
          "name": "",
          "type": "address"
        }
      ],
      "stateMutability": "view",
      "type": "function"
    },
    {
      "inputs": [
        {
          "internalType": "uint256",
          "name": "itemId",
          "type": "uint256"
        }
      ],
      "name": "isAuction",
      "outputs": [
        {
          "internalType": "bool",
          "name": "",
          "type": "bool"
        }
      ],
      "stateMutability": "view",
      "type": "function"
    },
    {
      "inputs": [],
      "name": "itemCount",
      "outputs": [
        {
          "internalType": "uint256",
          "name": "",
          "type": "uint256"
        }
      ],
      "stateMutability": "view",
      "type": "function"
    },
    {
      "inputs": [
        {
          "internalType": "uint256",
          "name": "",
          "type": "uint256"
        }
      ],
      "name": "items",
      "outputs": [
        {
          "internalType": "uint256",
          "name": "itemId",
          "type": "uint256"
        },
        {
          "internalType": "contract IERC721",
          "name": "nft",
          "type": "address"
        },
        {
          "internalType": "uint256",
          "name": "tokenId",
          "type": "uint256"
        },
        {
          "internalType": "uint256",
          "name": "price",
          "type": "uint256"
        },
        {
          "internalType": "address payable",
          "name": "seller",
          "type": "address"
        },
        {
          "internalType": "bool",
          "name": "sold",
          "type": "bool"
        }
      ],
      "stateMutability": "view",
      "type": "function"
    },
    {
      "inputs": [
        {
          "internalType": "contract IERC721",
          "name": "_nft",
          "type": "address"
        },
        {
          "internalType": "uint256",
          "name": "_tokenId",
          "type": "uint256"
        },
        {
          "internalType": "uint256",
          "name": "_price",
          "type": "uint256"
        },
        {
          "internalType": "uint256",
          "name": "_royality",
          "type": "uint256"
        }
      ],
      "name": "makeItem",
      "outputs": [],
      "stateMutability": "nonpayable",
      "type": "function"
    },
    {
      "inputs": [
        {
          "internalType": "uint256",
          "name": "itemId",
          "type": "uint256"
        },
        {
          "internalType": "uint256",
          "name": "_amount",
          "type": "uint256"
        }
      ],
      "name": "makeOffer",
      "outputs": [],
      "stateMutability": "nonpayable",
      "type": "function"
    },
    {
      "inputs": [
        {
          "internalType": "uint256",
          "name": "",
          "type": "uint256"
        }
      ],
      "name": "makeoffer",
      "outputs": [
        {
          "internalType": "uint256",
          "name": "amount",
          "type": "uint256"
        },
        {
          "internalType": "address",
          "name": "buyer",
          "type": "address"
        }
      ],
      "stateMutability": "view",
      "type": "function"
    },
    {
      "inputs": [],
      "name": "owner",
      "outputs": [
        {
          "internalType": "address",
          "name": "",
          "type": "address"
        }
      ],
      "stateMutability": "view",
      "type": "function"
    },
    {
      "inputs": [
        {
          "internalType": "address",
          "name": "",
          "type": "address"
        },
        {
          "internalType": "uint256",
          "name": "",
          "type": "uint256"
        }
      ],
      "name": "payedBids",
      "outputs": [
        {
          "internalType": "uint256",
          "name": "",
          "type": "uint256"
        }
      ],
      "stateMutability": "view",
      "type": "function"
    },
    {
      "inputs": [
        {
          "internalType": "uint256",
          "name": "_itemId",
          "type": "uint256"
        }
      ],
      "name": "purchaseItem",
      "outputs": [],
      "stateMutability": "payable",
      "type": "function"
    },
    {
      "inputs": [],
      "name": "renounceOwnership",
      "outputs": [],
      "stateMutability": "nonpayable",
      "type": "function"
    },
    {
      "inputs": [],
      "name": "totalAuctionCompleted",
      "outputs": [
        {
          "internalType": "uint256",
          "name": "",
          "type": "uint256"
        }
      ],
      "stateMutability": "view",
      "type": "function"
    },
    {
      "inputs": [],
      "name": "totalVolume",
      "outputs": [
        {
          "internalType": "uint256",
          "name": "",
          "type": "uint256"
        }
      ],
      "stateMutability": "view",
      "type": "function"
    },
    {
      "inputs": [
        {
          "internalType": "address",
          "name": "newOwner",
          "type": "address"
        }
      ],
      "name": "transferOwnership",
      "outputs": [],
      "stateMutability": "nonpayable",
      "type": "function"
    },
    {
      "stateMutability": "payable",
      "type": "receive"
    }
  ],
  "bytecode": "0x60a06040523480156200001157600080fd5b506040516200551338038062005513833981810160405281019062000037919062000259565b60016000819055506200005f62000053620000dc60201b60201c565b620000e460201b60201c565b8173ffffffffffffffffffffffffffffffffffffffff1660808173ffffffffffffffffffffffffffffffffffffffff168152505080600560006101000a81548173ffffffffffffffffffffffffffffffffffffffff021916908373ffffffffffffffffffffffffffffffffffffffff1602179055505050620002a0565b600033905090565b6000600160009054906101000a900473ffffffffffffffffffffffffffffffffffffffff16905081600160006101000a81548173ffffffffffffffffffffffffffffffffffffffff021916908373ffffffffffffffffffffffffffffffffffffffff1602179055508173ffffffffffffffffffffffffffffffffffffffff168173ffffffffffffffffffffffffffffffffffffffff167f8be0079c531659141344cd1fd0a4f28419497f9722a3daafe3b4186f6b6457e060405160405180910390a35050565b600080fd5b600073ffffffffffffffffffffffffffffffffffffffff82169050919050565b6000620001dc82620001af565b9050919050565b620001ee81620001cf565b8114620001fa57600080fd5b50565b6000815190506200020e81620001e3565b92915050565b60006200022182620001cf565b9050919050565b620002338162000214565b81146200023f57600080fd5b50565b600081519050620002538162000228565b92915050565b60008060408385031215620002735762000272620001aa565b5b60006200028385828601620001fd565b9250506020620002968582860162000242565b9150509250929050565b608051615242620002d1600039600081816118940152818161226d015281816135290152613b5401526152426000f3fe6080604052600436106101845760003560e01c8063715018a6116100d1578063bbc215c31161008a578063c750cb7911610064578063c750cb791461058b578063c815729d146105c8578063d38ea5bf146105f1578063f2fde38b1461060d5761018b565b8063bbc215c3146104f0578063bfb231d21461052d578063c2698a2d1461056f5761018b565b8063715018a6146103ce5780637bce3b1b146103e55780638704f2a3146104225780638da5cb5b1461045f5780638f2886441461048a578063961c9ae4146104c75761018b565b80635049d95b1161013e57806365e17c9d1161011857806365e17c9d14610333578063696aae081461035e5780636bf774a7146103875780636bfb0d01146103a35761018b565b80635049d95b146102ae578063598647f8146102ec5780635f81a57c146103085761018b565b80623db6d21461018d57806305b7cdd3146101b65780632212c694146101df57806327fabf771461021c578063305a67a8146102475780634579268a146102705761018b565b3661018b57005b005b34801561019957600080fd5b506101b460048036038101906101af91906140fb565b610636565b005b3480156101c257600080fd5b506101dd60048036038101906101d89190614128565b610923565b005b3480156101eb57600080fd5b50610206600480360381019061020191906140fb565b610cc0565b6040516102139190614183565b60405180910390f35b34801561022857600080fd5b50610231610e79565b60405161023e91906141ad565b60405180910390f35b34801561025357600080fd5b5061026e600480360381019061026991906140fb565b610e7f565b005b34801561027c57600080fd5b50610297600480360381019061029291906140fb565b611014565b6040516102a5929190614209565b60405180910390f35b3480156102ba57600080fd5b506102d560048036038101906102d091906140fb565b6110ad565b6040516102e3929190614209565b60405180910390f35b61030660048036038101906103019190614128565b6110f1565b005b34801561031457600080fd5b5061031d61188c565b60405161032a91906141ad565b60405180910390f35b34801561033f57600080fd5b50610348611892565b6040516103559190614253565b60405180910390f35b34801561036a57600080fd5b50610385600480360381019061038091906142ac565b6118b6565b005b6103a1600480360381019061039c919061433f565b611cd2565b005b3480156103af57600080fd5b506103b861249b565b6040516103c591906141ad565b60405180910390f35b3480156103da57600080fd5b506103e36124a1565b005b3480156103f157600080fd5b5061040c6004803603810190610407919061437f565b6124b5565b60405161041991906141ad565b60405180910390f35b34801561042e57600080fd5b50610449600480360381019061044491906140fb565b6124da565b6040516104569190614183565b60405180910390f35b34801561046b57600080fd5b5061047461251e565b60405161048191906143bf565b60405180910390f35b34801561049657600080fd5b506104b160048036038101906104ac91906140fb565b612548565b6040516104be91906141ad565b60405180910390f35b3480156104d357600080fd5b506104ee60048036038101906104e991906143da565b61268d565b005b3480156104fc57600080fd5b50610517600480360381019061051291906140fb565b612bdb565b60405161052491906141ad565b60405180910390f35b34801561053957600080fd5b50610554600480360381019061054f91906140fb565b612d20565b604051610566969594939291906144b4565b60405180910390f35b6105896004803603810190610584919061433f565b612da9565b005b34801561059757600080fd5b506105b260048036038101906105ad91906140fb565b6130b8565b6040516105bf91906143bf565b60405180910390f35b3480156105d457600080fd5b506105ef60048036038101906105ea91906140fb565b6131fd565b005b61060b600480360381019061060691906140fb565b613911565b005b34801561061957600080fd5b50610634600480360381019061062f9190614515565b613e19565b005b600060086000838152602001908152602001600020604051806101200160405290816000820160009054906101000a900460ff16151515158152602001600182015481526020016002820160009054906101000a900473ffffffffffffffffffffffffffffffffffffffff1673ffffffffffffffffffffffffffffffffffffffff1673ffffffffffffffffffffffffffffffffffffffff168152602001600382015481526020016004820160009054906101000a900473ffffffffffffffffffffffffffffffffffffffff1673ffffffffffffffffffffffffffffffffffffffff1673ffffffffffffffffffffffffffffffffffffffff1681526020016005820154815260200160068201548152602001600782015481526020016008820160009054906101000a900460ff1615151515815250509050600015158161010001511515146107b9576040517f08c379a00000000000000000000000000000000000000000000000000000000081526004016107b09061459f565b60405180910390fd5b8060c001514211156107d8576001816101000190151590811515815250505b806008600084815260200190815260200160002060008201518160000160006101000a81548160ff0219169083151502179055506020820151816001015560408201518160020160006101000a81548173ffffffffffffffffffffffffffffffffffffffff021916908373ffffffffffffffffffffffffffffffffffffffff1602179055506060820151816003015560808201518160040160006101000a81548173ffffffffffffffffffffffffffffffffffffffff021916908373ffffffffffffffffffffffffffffffffffffffff16021790555060a0820151816005015560c0820151816006015560e082015181600701556101008201518160080160006101000a81548160ff02191690831515021790555090505060006008600084815260200190815260200160002060000160006101000a81548160ff0219169083151502179055505050565b6000600660008481526020019081526020016000209050600060076000858152602001908152602001600020604051806040016040529081600082015481526020016001820160009054906101000a900473ffffffffffffffffffffffffffffffffffffffff1673ffffffffffffffffffffffffffffffffffffffff1673ffffffffffffffffffffffffffffffffffffffff1681525050905082816000015110610a02576040517f08c379a00000000000000000000000000000000000000000000000000000000081526004016109f99061460b565b60405180910390fd5b8160040160149054906101000a900460ff1615610a54576040517f08c379a0000000000000000000000000000000000000000000000000000000008152600401610a4b90614677565b60405180910390fd5b82600560009054906101000a900473ffffffffffffffffffffffffffffffffffffffff1673ffffffffffffffffffffffffffffffffffffffff166370a08231610a9b613e9c565b6040518263ffffffff1660e01b8152600401610ab791906143bf565b602060405180830381865afa158015610ad4573d6000803e3d6000fd5b505050506040513d601f19601f82011682018060405250810190610af891906146ac565b1015610b39576040517f08c379a0000000000000000000000000000000000000000000000000000000008152600401610b3090614725565b60405180910390fd5b6000600560009054906101000a900473ffffffffffffffffffffffffffffffffffffffff1673ffffffffffffffffffffffffffffffffffffffff1663dd62ed3e610b81613e9c565b306040518363ffffffff1660e01b8152600401610b9f929190614745565b602060405180830381865afa158015610bbc573d6000803e3d6000fd5b505050506040513d601f19601f82011682018060405250810190610be091906146ac565b9050838103610c87576040518060400160405280858152602001610c02613e9c565b73ffffffffffffffffffffffffffffffffffffffff16815250600760008781526020019081526020016000206000820151816000015560208201518160010160006101000a81548173ffffffffffffffffffffffffffffffffffffffff021916908373ffffffffffffffffffffffffffffffffffffffff160217905550905050610cb9565b6040517fff0fc96100000000000000000000000000000000000000000000000000000000815260040160405180910390fd5b5050505050565b60008060086000848152602001908152602001600020604051806101200160405290816000820160009054906101000a900460ff16151515158152602001600182015481526020016002820160009054906101000a900473ffffffffffffffffffffffffffffffffffffffff1673ffffffffffffffffffffffffffffffffffffffff1673ffffffffffffffffffffffffffffffffffffffff168152602001600382015481526020016004820160009054906101000a900473ffffffffffffffffffffffffffffffffffffffff1673ffffffffffffffffffffffffffffffffffffffff1673ffffffffffffffffffffffffffffffffffffffff1681526020016005820154815260200160068201548152602001600782015481526020016008820160009054906101000a900460ff1615151515815250509050600073ffffffffffffffffffffffffffffffffffffffff16816040015173ffffffffffffffffffffffffffffffffffffffff1603610e6b576040517f08c379a0000000000000000000000000000000000000000000000000000000008152600401610e62906147e0565b60405180910390fd5b806101000151915050919050565b60045481565b610e87613ea4565b60006006600083815260200190815260200160002090503373ffffffffffffffffffffffffffffffffffffffff168160040160009054906101000a900473ffffffffffffffffffffffffffffffffffffffff1673ffffffffffffffffffffffffffffffffffffffff1614610f30576040517f08c379a0000000000000000000000000000000000000000000000000000000008152600401610f279061484c565b60405180910390fd5b8060010160009054906101000a900473ffffffffffffffffffffffffffffffffffffffff1673ffffffffffffffffffffffffffffffffffffffff166323b872dd308360040160009054906101000a900473ffffffffffffffffffffffffffffffffffffffff1684600201546040518463ffffffff1660e01b8152600401610fb99392919061488d565b600060405180830381600087803b158015610fd357600080fd5b505af1158015610fe7573d6000803e3d6000fd5b5050505060018160040160146101000a81548160ff02191690831515021790555050611011613ef3565b50565b600080600060076000858152602001908152602001600020604051806040016040529081600082015481526020016001820160009054906101000a900473ffffffffffffffffffffffffffffffffffffffff1673ffffffffffffffffffffffffffffffffffffffff1673ffffffffffffffffffffffffffffffffffffffff16815250509050806000015181602001519250925050915091565b60076020528060005260406000206000915090508060000154908060010160009054906101000a900473ffffffffffffffffffffffffffffffffffffffff16905082565b600060086000848152602001908152602001600020604051806101200160405290816000820160009054906101000a900460ff16151515158152602001600182015481526020016002820160009054906101000a900473ffffffffffffffffffffffffffffffffffffffff1673ffffffffffffffffffffffffffffffffffffffff1673ffffffffffffffffffffffffffffffffffffffff168152602001600382015481526020016004820160009054906101000a900473ffffffffffffffffffffffffffffffffffffffff1673ffffffffffffffffffffffffffffffffffffffff1673ffffffffffffffffffffffffffffffffffffffff1681526020016005820154815260200160068201548152602001600782015481526020016008820160009054906101000a900460ff161515151581525050905060001515816101000151151514611274576040517f08c379a000000000000000000000000000000000000000000000000000000000815260040161126b90614910565b60405180910390fd5b600073ffffffffffffffffffffffffffffffffffffffff16816040015173ffffffffffffffffffffffffffffffffffffffff16036112e7576040517f08c379a00000000000000000000000000000000000000000000000000000000081526004016112de9061497c565b60405180910390fd5b8060c00151421015611887576000600960003373ffffffffffffffffffffffffffffffffffffffff1673ffffffffffffffffffffffffffffffffffffffff1681526020019081526020016000206000858152602001908152602001600020549050828260a0015110801561135f575082826060015111155b61139e576040517f08c379a0000000000000000000000000000000000000000000000000000000008152600401611395906149e8565b60405180910390fd5b816040015173ffffffffffffffffffffffffffffffffffffffff163373ffffffffffffffffffffffffffffffffffffffff1603611410576040517f08c379a000000000000000000000000000000000000000000000000000000000815260040161140790614a7a565b60405180910390fd5b82600560009054906101000a900473ffffffffffffffffffffffffffffffffffffffff1673ffffffffffffffffffffffffffffffffffffffff166370a08231336040518263ffffffff1660e01b815260040161146c91906143bf565b602060405180830381865afa158015611489573d6000803e3d6000fd5b505050506040513d601f19601f820116820180604052508101906114ad91906146ac565b10156114ee576040517f08c379a00000000000000000000000000000000000000000000000000000000081526004016114e590614725565b60405180910390fd5b6000600560009054906101000a900473ffffffffffffffffffffffffffffffffffffffff1673ffffffffffffffffffffffffffffffffffffffff1663dd62ed3e611536613e9c565b306040518363ffffffff1660e01b8152600401611554929190614745565b602060405180830381865afa158015611571573d6000803e3d6000fd5b505050506040513d601f19601f8201168201806040525081019061159591906146ac565b90508381036118845783600960003373ffffffffffffffffffffffffffffffffffffffff1673ffffffffffffffffffffffffffffffffffffffff168152602001908152602001600020600087815260200190815260200160002081905550600960003373ffffffffffffffffffffffffffffffffffffffff1673ffffffffffffffffffffffffffffffffffffffff1681526020019081526020016000206000868152602001908152602001600020549150818360a001818152505033836080019073ffffffffffffffffffffffffffffffffffffffff16908173ffffffffffffffffffffffffffffffffffffffff1681525050600a600086815260200190815260200160002060405180606001604052803373ffffffffffffffffffffffffffffffffffffffff16815260200184815260200142815250908060018154018082558091505060019003906000526020600020906003020160009091909190915060008201518160000160006101000a81548173ffffffffffffffffffffffffffffffffffffffff021916908373ffffffffffffffffffffffffffffffffffffffff16021790555060208201518160010155604082015181600201555050826008600087815260200190815260200160002060008201518160000160006101000a81548160ff0219169083151502179055506020820151816001015560408201518160020160006101000a81548173ffffffffffffffffffffffffffffffffffffffff021916908373ffffffffffffffffffffffffffffffffffffffff1602179055506060820151816003015560808201518160040160006101000a81548173ffffffffffffffffffffffffffffffffffffffff021916908373ffffffffffffffffffffffffffffffffffffffff16021790555060a0820151816005015560c0820151816006015560e082015181600701556101008201518160080160006101000a81548160ff021916908315150217905550905050836003600082825461187c9190614ac9565b925050819055505b50505b505050565b60035481565b7f000000000000000000000000000000000000000000000000000000000000000081565b6118be613ea4565b60008211611901576040517f08c379a00000000000000000000000000000000000000000000000000000000081526004016118f890614b6b565b60405180910390fd5b6103e881111561193d576040517fd495f56700000000000000000000000000000000000000000000000000000000815260040160405180910390fd5b60001515600b60008673ffffffffffffffffffffffffffffffffffffffff1673ffffffffffffffffffffffffffffffffffffffff16815260200190815260200160002060020160149054906101000a900460ff16151503611a905760405180608001604052808481526020018281526020013373ffffffffffffffffffffffffffffffffffffffff16815260200160011515815250600b60008673ffffffffffffffffffffffffffffffffffffffff1673ffffffffffffffffffffffffffffffffffffffff168152602001908152602001600020600082015181600001556020820151816001015560408201518160020160006101000a81548173ffffffffffffffffffffffffffffffffffffffff021916908373ffffffffffffffffffffffffffffffffffffffff16021790555060608201518160020160146101000a81548160ff0219169083151502179055509050505b60026000815480929190611aa390614b8b565b91905055508373ffffffffffffffffffffffffffffffffffffffff166323b872dd3330866040518463ffffffff1660e01b8152600401611ae593929190614bd3565b600060405180830381600087803b158015611aff57600080fd5b505af1158015611b13573d6000803e3d6000fd5b505050506040518060c0016040528060025481526020018573ffffffffffffffffffffffffffffffffffffffff1681526020018481526020018381526020013373ffffffffffffffffffffffffffffffffffffffff168152602001600015158152506006600060025481526020019081526020016000206000820151816000015560208201518160010160006101000a81548173ffffffffffffffffffffffffffffffffffffffff021916908373ffffffffffffffffffffffffffffffffffffffff160217905550604082015181600201556060820151816003015560808201518160040160006101000a81548173ffffffffffffffffffffffffffffffffffffffff021916908373ffffffffffffffffffffffffffffffffffffffff16021790555060a08201518160040160146101000a81548160ff0219169083151502179055509050503373ffffffffffffffffffffffffffffffffffffffff168473ffffffffffffffffffffffffffffffffffffffff167f655a0cf9c8db81512be9a76dc1c5ae5380b8816ce6ad659cd61b715e2999d59a6002548686604051611cbc93929190614c0a565b60405180910390a3611ccc613ef3565b50505050565b600060086000848152602001908152602001600020604051806101200160405290816000820160009054906101000a900460ff16151515158152602001600182015481526020016002820160009054906101000a900473ffffffffffffffffffffffffffffffffffffffff1673ffffffffffffffffffffffffffffffffffffffff1673ffffffffffffffffffffffffffffffffffffffff168152602001600382015481526020016004820160009054906101000a900473ffffffffffffffffffffffffffffffffffffffff1673ffffffffffffffffffffffffffffffffffffffff1673ffffffffffffffffffffffffffffffffffffffff1681526020016005820154815260200160068201548152602001600782015481526020016008820160009054906101000a900460ff16151515158152505090506008600084815260200190815260200160002060040160009054906101000a900473ffffffffffffffffffffffffffffffffffffffff1673ffffffffffffffffffffffffffffffffffffffff168273ffffffffffffffffffffffffffffffffffffffff1614611ead576040517f08c379a0000000000000000000000000000000000000000000000000000000008152600401611ea490614cb3565b60405180910390fd5b428160c0015110611ef3576040517f08c379a0000000000000000000000000000000000000000000000000000000008152600401611eea90614d1f565b60405180910390fd5b6000611efe84610cc0565b905080611f0f57611f0e84610636565b5b60006006600086815260200190815260200160002090508060010160009054906101000a900473ffffffffffffffffffffffffffffffffffffffff1673ffffffffffffffffffffffffffffffffffffffff166323b872dd303384600201546040518463ffffffff1660e01b8152600401611f8b93929190614bd3565b600060405180830381600087803b158015611fa557600080fd5b505af1158015611fb9573d6000803e3d6000fd5b5050505060018160040160146101000a81548160ff0219169083151502179055503373ffffffffffffffffffffffffffffffffffffffff168160040160009054906101000a900473ffffffffffffffffffffffffffffffffffffffff1673ffffffffffffffffffffffffffffffffffffffff168260010160009054906101000a900473ffffffffffffffffffffffffffffffffffffffff1673ffffffffffffffffffffffffffffffffffffffff167f8b4c9c8a607d67b321582dd8461041b1dc2ceeca70c8b7f37f8e02095cf2e76d88856002015486600301546040516120a293929190614c0a565b60405180910390a46000600b60008360010160009054906101000a900473ffffffffffffffffffffffffffffffffffffffff1673ffffffffffffffffffffffffffffffffffffffff1673ffffffffffffffffffffffffffffffffffffffff16815260200190815260200160002060020160009054906101000a900473ffffffffffffffffffffffffffffffffffffffff1690506000600b60008460010160009054906101000a900473ffffffffffffffffffffffffffffffffffffffff1673ffffffffffffffffffffffffffffffffffffffff1673ffffffffffffffffffffffffffffffffffffffff16815260200190815260200160002060010154905060096000866080015173ffffffffffffffffffffffffffffffffffffffff1673ffffffffffffffffffffffffffffffffffffffff168152602001908152602001600020600088815260200190815260200160002060009055600060018660a0015161220b9190614d3f565b905060006122198284613efd565b9050600061222683613f20565b9050600560009054906101000a900473ffffffffffffffffffffffffffffffffffffffff1673ffffffffffffffffffffffffffffffffffffffff166323b872dd89608001517f0000000000000000000000000000000000000000000000000000000000000000846040518463ffffffff1660e01b81526004016122ab9392919061488d565b6020604051808303816000875af11580156122ca573d6000803e3d6000fd5b505050506040513d601f19601f820116820180604052508101906122ee9190614dc5565b50600560009054906101000a900473ffffffffffffffffffffffffffffffffffffffff1673ffffffffffffffffffffffffffffffffffffffff166323b872dd896080015187856040518463ffffffff1660e01b815260040161235293929190614bd3565b6020604051808303816000875af1158015612371573d6000803e3d6000fd5b505050506040513d601f19601f820116820180604052508101906123959190614dc5565b50600560009054906101000a900473ffffffffffffffffffffffffffffffffffffffff1673ffffffffffffffffffffffffffffffffffffffff166323b872dd89608001518860040160009054906101000a900473ffffffffffffffffffffffffffffffffffffffff16858561240a9190614ac9565b876124159190614df2565b6040518463ffffffff1660e01b81526004016124339392919061488d565b6020604051808303816000875af1158015612452573d6000803e3d6000fd5b505050506040513d601f19601f820116820180604052508101906124769190614dc5565b506004600081548092919061248a90614b8b565b919050555050505050505050505050565b60025481565b6124a9613f43565b6124b36000613fc1565b565b6009602052816000526040600020602052806000526040600020600091509150505481565b6000600115156008600084815260200190815260200160002060000160009054906101000a900460ff161515036125145760019050612519565b600090505b919050565b6000600160009054906101000a900473ffffffffffffffffffffffffffffffffffffffff16905090565b60008060086000848152602001908152602001600020604051806101200160405290816000820160009054906101000a900460ff16151515158152602001600182015481526020016002820160009054906101000a900473ffffffffffffffffffffffffffffffffffffffff1673ffffffffffffffffffffffffffffffffffffffff1673ffffffffffffffffffffffffffffffffffffffff168152602001600382015481526020016004820160009054906101000a900473ffffffffffffffffffffffffffffffffffffffff1673ffffffffffffffffffffffffffffffffffffffff1673ffffffffffffffffffffffffffffffffffffffff1681526020016005820154815260200160068201548152602001600782015481526020016008820160009054906101000a900460ff16151515158152505090508060a00151915050919050565b600083116126d0576040517f08c379a00000000000000000000000000000000000000000000000000000000081526004016126c790614b6b565b60405180910390fd5b6103e882111561270c576040517fd495f56700000000000000000000000000000000000000000000000000000000815260040160405180910390fd5b60001515600b60008773ffffffffffffffffffffffffffffffffffffffff1673ffffffffffffffffffffffffffffffffffffffff16815260200190815260200160002060020160149054906101000a900460ff1615150361285f5760405180608001604052808581526020018381526020013373ffffffffffffffffffffffffffffffffffffffff16815260200160011515815250600b60008773ffffffffffffffffffffffffffffffffffffffff1673ffffffffffffffffffffffffffffffffffffffff168152602001908152602001600020600082015181600001556020820151816001015560408201518160020160006101000a81548173ffffffffffffffffffffffffffffffffffffffff021916908373ffffffffffffffffffffffffffffffffffffffff16021790555060608201518160020160146101000a81548160ff0219169083151502179055509050505b6002600081548092919061287290614b8b565b91905055508473ffffffffffffffffffffffffffffffffffffffff166323b872dd3330876040518463ffffffff1660e01b81526004016128b493929190614bd3565b600060405180830381600087803b1580156128ce57600080fd5b505af11580156128e2573d6000803e3d6000fd5b505050506001816128f39190614d3f565b905080426129019190614ac9565b905060405180610120016040528060011515815260200160025481526020013373ffffffffffffffffffffffffffffffffffffffff168152602001848152602001600073ffffffffffffffffffffffffffffffffffffffff168152602001600081526020018281526020014281526020016000151581525060086000600254815260200190815260200160002060008201518160000160006101000a81548160ff0219169083151502179055506020820151816001015560408201518160020160006101000a81548173ffffffffffffffffffffffffffffffffffffffff021916908373ffffffffffffffffffffffffffffffffffffffff1602179055506060820151816003015560808201518160040160006101000a81548173ffffffffffffffffffffffffffffffffffffffff021916908373ffffffffffffffffffffffffffffffffffffffff16021790555060a0820151816005015560c0820151816006015560e082015181600701556101008201518160080160006101000a81548160ff0219169083151502179055509050506040518060c0016040528060025481526020018673ffffffffffffffffffffffffffffffffffffffff1681526020018581526020018481526020013373ffffffffffffffffffffffffffffffffffffffff168152602001600015158152506006600060025481526020019081526020016000206000820151816000015560208201518160010160006101000a81548173ffffffffffffffffffffffffffffffffffffffff021916908373ffffffffffffffffffffffffffffffffffffffff160217905550604082015181600201556060820151816003015560808201518160040160006101000a81548173ffffffffffffffffffffffffffffffffffffffff021916908373ffffffffffffffffffffffffffffffffffffffff16021790555060a08201518160040160146101000a81548160ff0219169083151502179055509050505050505050565b60008060086000848152602001908152602001600020604051806101200160405290816000820160009054906101000a900460ff16151515158152602001600182015481526020016002820160009054906101000a900473ffffffffffffffffffffffffffffffffffffffff1673ffffffffffffffffffffffffffffffffffffffff1673ffffffffffffffffffffffffffffffffffffffff168152602001600382015481526020016004820160009054906101000a900473ffffffffffffffffffffffffffffffffffffffff1673ffffffffffffffffffffffffffffffffffffffff1673ffffffffffffffffffffffffffffffffffffffff1681526020016005820154815260200160068201548152602001600782015481526020016008820160009054906101000a900460ff16151515158152505090508060c00151915050919050565b60066020528060005260406000206000915090508060000154908060010160009054906101000a900473ffffffffffffffffffffffffffffffffffffffff16908060020154908060030154908060040160009054906101000a900473ffffffffffffffffffffffffffffffffffffffff16908060040160149054906101000a900460ff16905086565b600060086000848152602001908152602001600020604051806101200160405290816000820160009054906101000a900460ff16151515158152602001600182015481526020016002820160009054906101000a900473ffffffffffffffffffffffffffffffffffffffff1673ffffffffffffffffffffffffffffffffffffffff1673ffffffffffffffffffffffffffffffffffffffff168152602001600382015481526020016004820160009054906101000a900473ffffffffffffffffffffffffffffffffffffffff1673ffffffffffffffffffffffffffffffffffffffff1673ffffffffffffffffffffffffffffffffffffffff1681526020016005820154815260200160068201548152602001600782015481526020016008820160009054906101000a900460ff16151515158152505090506008600084815260200190815260200160002060020160009054906101000a900473ffffffffffffffffffffffffffffffffffffffff1673ffffffffffffffffffffffffffffffffffffffff168273ffffffffffffffffffffffffffffffffffffffff1614612f84576040517f08c379a0000000000000000000000000000000000000000000000000000000008152600401612f7b90614e72565b60405180910390fd5b428160c0015110612fca576040517f08c379a0000000000000000000000000000000000000000000000000000000008152600401612fc190614d1f565b60405180910390fd5b6000612fd584610cc0565b905080612fe657612fe584610636565b5b60006006600086815260200190815260200160002090508060010160009054906101000a900473ffffffffffffffffffffffffffffffffffffffff1673ffffffffffffffffffffffffffffffffffffffff166323b872dd303384600201546040518463ffffffff1660e01b815260040161306293929190614bd3565b600060405180830381600087803b15801561307c57600080fd5b505af1158015613090573d6000803e3d6000fd5b5050505060018160040160146101000a81548160ff0219169083151502179055505050505050565b60008060086000848152602001908152602001600020604051806101200160405290816000820160009054906101000a900460ff16151515158152602001600182015481526020016002820160009054906101000a900473ffffffffffffffffffffffffffffffffffffffff1673ffffffffffffffffffffffffffffffffffffffff1673ffffffffffffffffffffffffffffffffffffffff168152602001600382015481526020016004820160009054906101000a900473ffffffffffffffffffffffffffffffffffffffff1673ffffffffffffffffffffffffffffffffffffffff1673ffffffffffffffffffffffffffffffffffffffff1681526020016005820154815260200160068201548152602001600782015481526020016008820160009054906101000a900460ff16151515158152505090508060800151915050919050565b600060076000838152602001908152602001600020604051806040016040529081600082015481526020016001820160009054906101000a900473ffffffffffffffffffffffffffffffffffffffff1673ffffffffffffffffffffffffffffffffffffffff1673ffffffffffffffffffffffffffffffffffffffff1681525050905060006006600084815260200190815260200160002090508060040160009054906101000a900473ffffffffffffffffffffffffffffffffffffffff1673ffffffffffffffffffffffffffffffffffffffff163373ffffffffffffffffffffffffffffffffffffffff1614613328576040517f08c379a000000000000000000000000000000000000000000000000000000000815260040161331f90614ede565b60405180910390fd5b60008311801561333a57506002548311155b613379576040517f08c379a000000000000000000000000000000000000000000000000000000000815260040161337090614f4a565b60405180910390fd5b8060040160149054906101000a900460ff16156133cb576040517f08c379a00000000000000000000000000000000000000000000000000000000081526004016133c290614fb6565b60405180910390fd5b60006133da8360000151613f20565b90506000600b60008460010160009054906101000a900473ffffffffffffffffffffffffffffffffffffffff1673ffffffffffffffffffffffffffffffffffffffff1673ffffffffffffffffffffffffffffffffffffffff1681526020019081526020016000206001015490506000600b60008560010160009054906101000a900473ffffffffffffffffffffffffffffffffffffffff1673ffffffffffffffffffffffffffffffffffffffff1673ffffffffffffffffffffffffffffffffffffffff16815260200190815260200160002060020160009054906101000a900473ffffffffffffffffffffffffffffffffffffffff16905060006134e2866000015184613efd565b9050600560009054906101000a900473ffffffffffffffffffffffffffffffffffffffff1673ffffffffffffffffffffffffffffffffffffffff166323b872dd87602001517f0000000000000000000000000000000000000000000000000000000000000000876040518463ffffffff1660e01b81526004016135679392919061488d565b6020604051808303816000875af1158015613586573d6000803e3d6000fd5b505050506040513d601f19601f820116820180604052508101906135aa9190614dc5565b50600560009054906101000a900473ffffffffffffffffffffffffffffffffffffffff1673ffffffffffffffffffffffffffffffffffffffff166323b872dd876020015184846040518463ffffffff1660e01b815260040161360e93929190614bd3565b6020604051808303816000875af115801561362d573d6000803e3d6000fd5b505050506040513d601f19601f820116820180604052508101906136519190614dc5565b50600560009054906101000a900473ffffffffffffffffffffffffffffffffffffffff1673ffffffffffffffffffffffffffffffffffffffff166323b872dd87602001518760040160009054906101000a900473ffffffffffffffffffffffffffffffffffffffff1684886136c69190614ac9565b8a600001516136d59190614df2565b6040518463ffffffff1660e01b81526004016136f39392919061488d565b6020604051808303816000875af1158015613712573d6000803e3d6000fd5b505050506040513d601f19601f820116820180604052508101906137369190614dc5565b5060018560040160146101000a81548160ff0219169083151502179055508460010160009054906101000a900473ffffffffffffffffffffffffffffffffffffffff1673ffffffffffffffffffffffffffffffffffffffff166323b872dd30886020015188600201546040518463ffffffff1660e01b81526004016137bd93929190614bd3565b600060405180830381600087803b1580156137d757600080fd5b505af11580156137eb573d6000803e3d6000fd5b50505050600760008881526020019081526020016000206000808201600090556001820160006101000a81549073ffffffffffffffffffffffffffffffffffffffff02191690555050856020015173ffffffffffffffffffffffffffffffffffffffff168560040160009054906101000a900473ffffffffffffffffffffffffffffffffffffffff1673ffffffffffffffffffffffffffffffffffffffff168660010160009054906101000a900473ffffffffffffffffffffffffffffffffffffffff1673ffffffffffffffffffffffffffffffffffffffff167f8b4c9c8a607d67b321582dd8461041b1dc2ceeca70c8b7f37f8e02095cf2e76d8a89600201548a6003015460405161390093929190614c0a565b60405180910390a450505050505050565b613919613ea4565b600015156008600083815260200190815260200160002060000160009054906101000a900460ff16151514613983576040517f08c379a000000000000000000000000000000000000000000000000000000000815260040161397a90615022565b60405180910390fd5b600061398e82614087565b905060006006600084815260200190815260200160002090506000831180156139b957506002548311155b6139f8576040517f08c379a00000000000000000000000000000000000000000000000000000000081526004016139ef90614f4a565b60405180910390fd5b8060040160149054906101000a900460ff1615613a4a576040517f08c379a0000000000000000000000000000000000000000000000000000000008152600401613a4190614fb6565b60405180910390fd5b6000600b60008360010160009054906101000a900473ffffffffffffffffffffffffffffffffffffffff1673ffffffffffffffffffffffffffffffffffffffff1673ffffffffffffffffffffffffffffffffffffffff16815260200190815260200160002060020160009054906101000a900473ffffffffffffffffffffffffffffffffffffffff1690506000600b60008460010160009054906101000a900473ffffffffffffffffffffffffffffffffffffffff1673ffffffffffffffffffffffffffffffffffffffff1673ffffffffffffffffffffffffffffffffffffffff1681526020019081526020016000206001015490506000613b50846003015483613efd565b90507f000000000000000000000000000000000000000000000000000000000000000073ffffffffffffffffffffffffffffffffffffffff166108fc869081150290604051600060405180830381858888f19350505050158015613bb8573d6000803e3d6000fd5b508273ffffffffffffffffffffffffffffffffffffffff166108fc829081150290604051600060405180830381858888f19350505050158015613bff573d6000803e3d6000fd5b508360040160009054906101000a900473ffffffffffffffffffffffffffffffffffffffff1673ffffffffffffffffffffffffffffffffffffffff166108fc8287613c4a9190614ac9565b8660030154613c599190614df2565b9081150290604051600060405180830381858888f19350505050158015613c84573d6000803e3d6000fd5b5060018460040160146101000a81548160ff0219169083151502179055508360010160009054906101000a900473ffffffffffffffffffffffffffffffffffffffff1673ffffffffffffffffffffffffffffffffffffffff166323b872dd303387600201546040518463ffffffff1660e01b8152600401613d0793929190614bd3565b600060405180830381600087803b158015613d2157600080fd5b505af1158015613d35573d6000803e3d6000fd5b505050503373ffffffffffffffffffffffffffffffffffffffff168460040160009054906101000a900473ffffffffffffffffffffffffffffffffffffffff1673ffffffffffffffffffffffffffffffffffffffff168560010160009054906101000a900473ffffffffffffffffffffffffffffffffffffffff1673ffffffffffffffffffffffffffffffffffffffff167f8b4c9c8a607d67b321582dd8461041b1dc2ceeca70c8b7f37f8e02095cf2e76d8988600201548960030154604051613e0193929190614c0a565b60405180910390a45050505050613e16613ef3565b50565b613e21613f43565b600073ffffffffffffffffffffffffffffffffffffffff168173ffffffffffffffffffffffffffffffffffffffff1603613e90576040517f08c379a0000000000000000000000000000000000000000000000000000000008152600401613e87906150b4565b60405180910390fd5b613e9981613fc1565b50565b600033905090565b600260005403613ee9576040517f08c379a0000000000000000000000000000000000000000000000000000000008152600401613ee090615120565b60405180910390fd5b6002600081905550565b6001600081905550565b60008161271084613f0e919061516f565b613f189190614d3f565b905092915050565b600060fa61271083613f32919061516f565b613f3c9190614d3f565b9050919050565b613f4b613e9c565b73ffffffffffffffffffffffffffffffffffffffff16613f6961251e565b73ffffffffffffffffffffffffffffffffffffffff1614613fbf576040517f08c379a0000000000000000000000000000000000000000000000000000000008152600401613fb6906151ec565b60405180910390fd5b565b6000600160009054906101000a900473ffffffffffffffffffffffffffffffffffffffff16905081600160006101000a81548173ffffffffffffffffffffffffffffffffffffffff021916908373ffffffffffffffffffffffffffffffffffffffff1602179055508173ffffffffffffffffffffffffffffffffffffffff168173ffffffffffffffffffffffffffffffffffffffff167f8be0079c531659141344cd1fd0a4f28419497f9722a3daafe3b4186f6b6457e060405160405180910390a35050565b600060fa61271060066000858152602001908152602001600020600301546140af919061516f565b6140b99190614d3f565b9050919050565b600080fd5b6000819050919050565b6140d8816140c5565b81146140e357600080fd5b50565b6000813590506140f5816140cf565b92915050565b600060208284031215614111576141106140c0565b5b600061411f848285016140e6565b91505092915050565b6000806040838503121561413f5761413e6140c0565b5b600061414d858286016140e6565b925050602061415e858286016140e6565b9150509250929050565b60008115159050919050565b61417d81614168565b82525050565b60006020820190506141986000830184614174565b92915050565b6141a7816140c5565b82525050565b60006020820190506141c2600083018461419e565b92915050565b600073ffffffffffffffffffffffffffffffffffffffff82169050919050565b60006141f3826141c8565b9050919050565b614203816141e8565b82525050565b600060408201905061421e600083018561419e565b61422b60208301846141fa565b9392505050565b600061423d826141c8565b9050919050565b61424d81614232565b82525050565b60006020820190506142686000830184614244565b92915050565b6000614279826141e8565b9050919050565b6142898161426e565b811461429457600080fd5b50565b6000813590506142a681614280565b92915050565b600080600080608085870312156142c6576142c56140c0565b5b60006142d487828801614297565b94505060206142e5878288016140e6565b93505060406142f6878288016140e6565b9250506060614307878288016140e6565b91505092959194509250565b61431c816141e8565b811461432757600080fd5b50565b60008135905061433981614313565b92915050565b60008060408385031215614356576143556140c0565b5b6000614364858286016140e6565b92505060206143758582860161432a565b9150509250929050565b60008060408385031215614396576143956140c0565b5b60006143a48582860161432a565b92505060206143b5858286016140e6565b9150509250929050565b60006020820190506143d460008301846141fa565b92915050565b600080600080600060a086880312156143f6576143f56140c0565b5b600061440488828901614297565b9550506020614415888289016140e6565b9450506040614426888289016140e6565b9350506060614437888289016140e6565b9250506080614448888289016140e6565b9150509295509295909350565b6000819050919050565b600061447a614475614470846141c8565b614455565b6141c8565b9050919050565b600061448c8261445f565b9050919050565b600061449e82614481565b9050919050565b6144ae81614493565b82525050565b600060c0820190506144c9600083018961419e565b6144d660208301886144a5565b6144e3604083018761419e565b6144f0606083018661419e565b6144fd6080830185614244565b61450a60a0830184614174565b979650505050505050565b60006020828403121561452b5761452a6140c0565b5b60006145398482850161432a565b91505092915050565b600082825260208201905092915050565b7f546869732061756374696f6e2068617320456e64656400000000000000000000600082015250565b6000614589601683614542565b915061459482614553565b602082019050919050565b600060208201905081810360008301526145b88161457c565b9050919050565b7f706c6561736520696e63726561736520796f7572206f66666572200000000000600082015250565b60006145f5601b83614542565b9150614600826145bf565b602082019050919050565b60006020820190508181036000830152614624816145e8565b9050919050565b7f496420497320536f6c6400000000000000000000000000000000000000000000600082015250565b6000614661600a83614542565b915061466c8261462b565b602082019050919050565b6000602082019050818103600083015261469081614654565b9050919050565b6000815190506146a6816140cf565b92915050565b6000602082840312156146c2576146c16140c0565b5b60006146d084828501614697565b91505092915050565b7f796f7520446f6e7420486176652042616c616e63650000000000000000000000600082015250565b600061470f601583614542565b915061471a826146d9565b602082019050919050565b6000602082019050818103600083015261473e81614702565b9050919050565b600060408201905061475a60008301856141fa565b61476760208301846141fa565b9392505050565b7f41756374696f6e20666f722074686973204e4654206973206e6f7420696e207060008201527f726f677265737300000000000000000000000000000000000000000000000000602082015250565b60006147ca602783614542565b91506147d58261476e565b604082019050919050565b600060208201905081810360008301526147f9816147bd565b9050919050565b7f796f75206172654e6f7420616c6c6f7720746f2063616e63656c206c69737400600082015250565b6000614836601f83614542565b915061484182614800565b602082019050919050565b6000602082019050818103600083015261486581614829565b9050919050565b600061487782614481565b9050919050565b6148878161486c565b82525050565b60006060820190506148a260008301866141fa565b6148af602083018561487e565b6148bc604083018461419e565b949350505050565b7f41756374696f6e2068617320656e646564000000000000000000000000000000600082015250565b60006148fa601183614542565b9150614905826148c4565b602082019050919050565b60006020820190508181036000830152614929816148ed565b9050919050565b7f41756374696f6e20646f6573206e6f7420657869737400000000000000000000600082015250565b6000614966601683614542565b915061497182614930565b602082019050919050565b6000602082019050818103600083015261499581614959565b9050919050565b7f506c656173652073656e64206d6f72652066756e647300000000000000000000600082015250565b60006149d2601683614542565b91506149dd8261499c565b602082019050919050565b60006020820190508181036000830152614a01816149c5565b9050919050565b7f596f752063616e6e6f742062696420696e20796f7572206f776e20617563746960008201527f6f6e000000000000000000000000000000000000000000000000000000000000602082015250565b6000614a64602283614542565b9150614a6f82614a08565b604082019050919050565b60006020820190508181036000830152614a9381614a57565b9050919050565b7f4e487b7100000000000000000000000000000000000000000000000000000000600052601160045260246000fd5b6000614ad4826140c5565b9150614adf836140c5565b9250827fffffffffffffffffffffffffffffffffffffffffffffffffffffffffffffffff03821115614b1457614b13614a9a565b5b828201905092915050565b7f5072696365206d7573742062652067726561746572207468616e207a65726f00600082015250565b6000614b55601f83614542565b9150614b6082614b1f565b602082019050919050565b60006020820190508181036000830152614b8481614b48565b9050919050565b6000614b96826140c5565b91507fffffffffffffffffffffffffffffffffffffffffffffffffffffffffffffffff8203614bc857614bc7614a9a565b5b600182019050919050565b6000606082019050614be860008301866141fa565b614bf560208301856141fa565b614c02604083018461419e565b949350505050565b6000606082019050614c1f600083018661419e565b614c2c602083018561419e565b614c39604083018461419e565b949350505050565b7f596f7520617265206e6f7420617574686f72697a656420746f20636f6e636c7560008201527f6465207468652061756374696f6e000000000000000000000000000000000000602082015250565b6000614c9d602e83614542565b9150614ca882614c41565b604082019050919050565b60006020820190508181036000830152614ccc81614c90565b9050919050565b7f41756374696f6e2054696d652072656d61696e696e6700000000000000000000600082015250565b6000614d09601683614542565b9150614d1482614cd3565b602082019050919050565b60006020820190508181036000830152614d3881614cfc565b9050919050565b6000614d4a826140c5565b9150614d55836140c5565b9250817fffffffffffffffffffffffffffffffffffffffffffffffffffffffffffffffff0483118215151615614d8e57614d8d614a9a565b5b828202905092915050565b614da281614168565b8114614dad57600080fd5b50565b600081519050614dbf81614d99565b92915050565b600060208284031215614ddb57614dda6140c0565b5b6000614de984828501614db0565b91505092915050565b6000614dfd826140c5565b9150614e08836140c5565b925082821015614e1b57614e1a614a9a565b5b828203905092915050565b7f596f7520617265206e6f74204f776e6572206f662074686973204e4654000000600082015250565b6000614e5c601d83614542565b9150614e6782614e26565b602082019050919050565b60006020820190508181036000830152614e8b81614e4f565b9050919050565b7f796f7520617265204e6f74206f776e6572000000000000000000000000000000600082015250565b6000614ec8601183614542565b9150614ed382614e92565b602082019050919050565b60006020820190508181036000830152614ef781614ebb565b9050919050565b7f6974656d20646f65736e27742065786973740000000000000000000000000000600082015250565b6000614f34601283614542565b9150614f3f82614efe565b602082019050919050565b60006020820190508181036000830152614f6381614f27565b9050919050565b7f6974656d20616c726561647920736f6c64000000000000000000000000000000600082015250565b6000614fa0601183614542565b9150614fab82614f6a565b602082019050919050565b60006020820190508181036000830152614fcf81614f93565b9050919050565b7f41756374696f6e204e6f7420456e640000000000000000000000000000000000600082015250565b600061500c600f83614542565b915061501782614fd6565b602082019050919050565b6000602082019050818103600083015261503b81614fff565b9050919050565b7f4f776e61626c653a206e6577206f776e657220697320746865207a65726f206160008201527f6464726573730000000000000000000000000000000000000000000000000000602082015250565b600061509e602683614542565b91506150a982615042565b604082019050919050565b600060208201905081810360008301526150cd81615091565b9050919050565b7f5265656e7472616e637947756172643a207265656e7472616e742063616c6c00600082015250565b600061510a601f83614542565b9150615115826150d4565b602082019050919050565b60006020820190508181036000830152615139816150fd565b9050919050565b7f4e487b7100000000000000000000000000000000000000000000000000000000600052601260045260246000fd5b600061517a826140c5565b9150615185836140c5565b92508261519557615194615140565b5b828204905092915050565b7f4f776e61626c653a2063616c6c6572206973206e6f7420746865206f776e6572600082015250565b60006151d6602083614542565b91506151e1826151a0565b602082019050919050565b60006020820190508181036000830152615205816151c9565b905091905056fea2646970667358221220ea406279844a258b5e8e9c3048f0598fe38f09159169a93947e05fc1158b9a2264736f6c634300080e0033",
  "linkReferences": {},
  "deployedLinkReferences": {}
}